:100000000C9434000C9449000C9449000C94490061
:100010000C9449000C9449000C9449000C9449003C
:100020000C9449000C9449000C9449000C9449002C
:100030000C9449000C9449000C9449000C9449001C
:100040000C9449000C9449000C9449000C9449000C
:100050000C9449000C9449000C9449000C944900FC
:100060000C9449000C94490011241FBECFEFD8E036
:10007000DEBFCDBF13E0A0E0B1E0EAEAF6E002C0E7
:1000800005900D92AE35B107D9F70E941B030C9471
:1000900053030C9400000E940D020E94110240E0E4
:1000A00050E061E070E080E090E00E9479020E9400
:1000B0003C0260E070E081E090E00E94480240E095
:1000C00050E060E070E081E090E00E9456028AE03B
:1000D00091E00E94DE020C94300220E040E064E1F6
:1000E00082E093E00E94000321E040E064E187E1C8
:1000F00093E00C940003FF920F931F93CF93DF9331
:10010000CDB7DEB764970FB6F894DEBF0FBECDBF94
:1001100020E044E164E18CE293E00E94000300E10E
:1001200010E060E070E081E090E00E9467022FEF55
:1001300081EE94E0215080409040E1F700C0000043
:100140000150110971F704E010E060E070E081E017
:1001500090E00E9467022FEF83EC99E021508040ED
:100160009040E1F700C000000150110971F72FEF36
:1001700083ED90E3215080409040E1F700C0000003
:1001800082E1E1E4F3E0DE01119601900D928A959F
:10019000E1F740E050E061E070E081E090E00E9433
:1001A00056028E010F5F1F4F84E1F82E21E04F2D84
:1001B00061E0C8010E9400032FEF81EE94E021501E
:1001C00080409040E1F700C000000F5F1F4FF394A4
:1001D00025E2F212EBCF41E050E061E070E081E017
:1001E00090E00E9456028FEF93ED20E38150904003
:1001F0002040E1F700C0000040E050E061E070E026
:1002000081E090E00E94560280E290E09C8B8B8B14
:1002100014E221E0412F61E0CE0143960E940003E9
:100220008FEF90E722E0815090402040E1F700C03E
:1002300000001150133169F717E220E0412F61E00F
:10024000CE0143960E9400038FEF96E721E0815094
:1002500090402040E1F700C000001150133169F7D1
:1002600040E050E060E070E081E090E00E945602E3
:100270008FEF93EC29E0815090402040E1F700C0DF
:1002800000000E94300264960FB6F894DEBF0FBEE5
:10029000CDBFDF91CF911F910F91FF900895EF9205
:1002A000FF920F931F93CF93DF93CDB7DEB7C85B59
:1002B000D1400FB6F894DEBF0FBECDBF88EB91E002
:1002C000EAE4F1E0DE01119601900D920197E1F769
:1002D0008E010F5F1F4FF12C2F2D2170E22E40E079
:1002E00064E1C8010E940003EE2049F08FEF94E31F
:1002F0002CE0815090402040E1F700C00000F394D2
:100300000C5E1F4F86E1F812E7CF0E9430029FEF8C
:100310002DE282E2915020408040E1F700C00000D1
:10032000C854DE4F0FB6F894DEBF0FBECDBFDF91CD
:10033000CF911F910F91FF90EF90089520E048E03A
:1003400064E080E091E00E94000321E048E064E086
:1003500085E091E00E9400032FEF83ED90E32150B0
:1003600080409040E1F700C0000020E043E064E0FE
:1003700083E593E00E94000321E04DE064E088E51E
:1003800093E00C9400032BB1880F880F982F947082
:10039000922B9BB99BB18B6F89238BB985E08A9592
:1003A000F1F700005B9A8BB18BB995E09A95F1F764
:1003B00000008BB190E1699FB0011124862B8BB9AD
:1003C0008BB16F6068236BB985E08A95F1F7000007
:1003D0008BB18BB95B9895E09A95F1F70000089581
:1003E0001F93CF93DF93EC01162F62956F700E94DD
:1003F000C30187EC90E00197F1F700C00000612F86
:10040000CE010E94C30187EC90E00197F1F700C094
:100410000000DF91CF911F9108958FEF8AB91BB82B
:100420000895CF93DF93C3E0D0E063E080E090E0F5
:100430000E94C30187EC90E00197F1F700C0000033
:10044000219799F762E080E090E00E94C30187EC79
:1004500090E00197F1F700C00000DF91CF9108957F
:1004600061E080E090E00E94F0018FE39FE101975E
:10047000F1F700C00000089562E080E090E00E9483
:10048000F0018FE39FE10197F1F700C000000895AC
:10049000880F6460682B80E090E00E94F00187EC98
:1004A00090E00197F1F700C000000895660F4860E2
:1004B000642B880F880F682B80E090E00E94F00189
:1004C00087EC90E00197F1F700C000000895660FF7
:1004D000660F6061880F880F880F682B80E090E0BE
:1004E0000E94F00187EC90E00197F1F700C0000056
:1004F0000895440F440F4062660F660F660F642B29
:100500008295807F682B80E090E00E94F00187EC6C
:1005100090E00197F1F700C000000895682F60682F
:1005200080E090E00E94F00187EC90E00197F1F705
:1005300000C0000008958F73682F606480E090E031
:100540000E94F00187EC90E00197F1F700C00000F5
:100550000895682F81E090E00E94F00187EC90E020
:100560000197F1F700C000000895CF93C62F0E94B5
:100570008E028C2FCF910C94A902CF93C62F0E948C
:100580009B028C2FCF910C94A9020F931F93CF93B2
:10059000DF93D82FDD0FDD0FDD0F8B01C0E0F801F9
:1005A00061918F018D2F8C0F0E94BD02CF5FC830EB
:1005B000B1F7DF91CF911F910F9108950F931F9382
:1005C000CF938C01C0E0B8018C2F0E94C502CF5F91
:1005D000085F1F4FC830B9F7CF911F910F91089551
:1005E0006295660F660F607C860F0895962F429580
:1005F000440F440F407C682F842F890F0C94B50260
:10060000FF920F931F93CF93DF93C42FF22E8C0191
:10061000D62FD40FCD1306C0DF91CF911F910F912C
:10062000FF9008954F2D6C2FF80181918F010E944A
:10063000F602CF5FEFCF0E944B002FEF83ED90E3E8
:10064000215080409040E1F700C000000E946D0002
:100650002FEF87EA91E6215080409040E1F700C0FB
:1006600000000E947B002FEF83ED90E3215080403B
:100670009040E1F700C000000E944F012FEF8DE293
:1006800092E2215080409040E1F700C000000E94BB
:100690009E012FEF87EA91E6215080409040E1F7DC
:0A06A00000C00000C8CFF894FFCF9F
:1006AA000001020300040506070000000000000321
:1006BA0004080000000000001F0008150B040B14BA
:1006CA00160000180C040C10100808090808050286
:1006DA0001001008100204101F001D04000101028D
:1006EA001C000C0B1102100E0204202020202020D6
:1006FA002020202020202020202020202020596F68
:10070A00752020202020202020202020202020208A
:10071A0020202020202020202020202020202020CF
:10072A00202020202020202063616E2020202020ED
:10073A0020202020202020202020202020202020AF
:10074A00202020202020202020202020202020209F
:10075A0020206576656E2020202020202020202061
:10076A00202020202020202020202020202020207F
:10077A00202020202020202020202068617665204B
:10078A00202020202020202020202020202020205F
:10079A0020757020202020202020202020202020AA
:1007AA00202020202020202020202020202020203F
:1007BA00202020202020202020757020746F2020E7
:1007CA00202020202020202020202020202020201F
:1007DA00202020202020202020202020202020200F
:1007EA0020757020746F20202020202020202020B7
:1007FA00202020202045494748542020202020201E
:10080A0020202020202020435553544F4D495A453B
:10081A0044202020202020202020202020202020AA
:10082A00202020202020202020202020202020439B
:10083A005553544F4D495A4544202020202020200A
:10084A0020202043484152414354455253202020FE
:10085A00202020202020202020204C494B452020E9
:10086A00202020202020202020202020202020207E
:10087A00202020202020202020202020202020206E
:10088A0020204C494B4520202020202020202020B9
:10089A002020202020205448495320202020202096
:1008AA00202054686973204C43442063616E20649D
:1008BA006F202020202000207072657474792063D4
:1008CA006F6F6C2073747566662E2000596F7520E1
:1008DA0063616E207363726F6C6C20746578742C1C
:1008EA000020646973706C6179206120637572738A
:0E08FA006F72004449434B00425554540000B5
:00000001FF
